{
  "contractName": "Roulette",
  "abi": [
    {
      "inputs": [],
      "payable": true,
      "stateMutability": "payable",
      "type": "constructor"
    },
    {
      "anonymous": false,
      "inputs": [
        {
          "indexed": false,
          "internalType": "uint256",
          "name": "number",
          "type": "uint256"
        }
      ],
      "name": "RandomNumber",
      "type": "event"
    },
    {
      "constant": true,
      "inputs": [
        {
          "internalType": "uint256",
          "name": "",
          "type": "uint256"
        }
      ],
      "name": "bets",
      "outputs": [
        {
          "internalType": "address",
          "name": "player",
          "type": "address"
        },
        {
          "internalType": "uint8",
          "name": "betType",
          "type": "uint8"
        },
        {
          "internalType": "uint8",
          "name": "number",
          "type": "uint8"
        }
      ],
      "payable": false,
      "stateMutability": "view",
      "type": "function"
    },
    {
      "constant": true,
      "inputs": [],
      "name": "getStatus",
      "outputs": [
        {
          "internalType": "uint256",
          "name": "",
          "type": "uint256"
        },
        {
          "internalType": "uint256",
          "name": "",
          "type": "uint256"
        },
        {
          "internalType": "uint256",
          "name": "",
          "type": "uint256"
        },
        {
          "internalType": "uint256",
          "name": "",
          "type": "uint256"
        },
        {
          "internalType": "uint256",
          "name": "",
          "type": "uint256"
        }
      ],
      "payable": false,
      "stateMutability": "view",
      "type": "function"
    },
    {
      "constant": false,
      "inputs": [],
      "name": "addEther",
      "outputs": [],
      "payable": true,
      "stateMutability": "payable",
      "type": "function"
    },
    {
      "constant": false,
      "inputs": [
        {
          "internalType": "uint8",
          "name": "number",
          "type": "uint8"
        },
        {
          "internalType": "uint8",
          "name": "betType",
          "type": "uint8"
        }
      ],
      "name": "bet",
      "outputs": [],
      "payable": true,
      "stateMutability": "payable",
      "type": "function"
    },
    {
      "constant": false,
      "inputs": [],
      "name": "spinWheel",
      "outputs": [],
      "payable": false,
      "stateMutability": "nonpayable",
      "type": "function"
    },
    {
      "constant": false,
      "inputs": [],
      "name": "cashOut",
      "outputs": [],
      "payable": false,
      "stateMutability": "nonpayable",
      "type": "function"
    },
    {
      "constant": false,
      "inputs": [],
      "name": "creatorKill",
      "outputs": [],
      "payable": false,
      "stateMutability": "nonpayable",
      "type": "function"
    }
  ],
  "bytecode": "0x608060405233600360006101000a81548173ffffffffffffffffffffffffffffffffffffffff021916908373ffffffffffffffffffffffffffffffffffffffff1602179055506000600181905550426002819055506040518060c00160405280600260ff168152602001600360ff168152602001600360ff168152602001600260ff168152602001600260ff168152602001602460ff1681525060069060066100a9929190610122565b506040518060c00160405280600160ff168152602001600260ff168152602001600260ff168152602001600160ff168152602001600160ff168152602001602460ff1681525060079060066100ff929190610122565b50662386f26fc10000600081905550671bc16d674ec800006004819055506101f9565b82805482825590600052602060002090601f016020900481019282156101b85791602002820160005b8382111561018957835183826101000a81548160ff021916908360ff160217905550926020019260010160208160000104928301926001030261014b565b80156101b65782816101000a81549060ff0219169055600101602081600001049283019260010302610189565b505b5090506101c591906101c9565b5090565b6101f691905b808211156101f257600081816101000a81549060ff0219169055506001016101cf565b5090565b90565b610dac806102086000396000f3fe6080604052600436106100705760003560e01c8063793cd71e1161004e578063793cd71e146101685780638894dd2b1461017f5780638c0e554f14610189578063d773f46e146101a057610070565b806315ecef921461007557806322af00fa1461008c5780634e69d56014610121575b600080fd5b34801561008157600080fd5b5061008a6101de565b005b34801561009857600080fd5b506100c5600480360360208110156100af57600080fd5b81019080803590602001909291905050506107ec565b604051808473ffffffffffffffffffffffffffffffffffffffff1673ffffffffffffffffffffffffffffffffffffffff1681526020018360ff1660ff1681526020018260ff1660ff168152602001935050505060405180910390f35b34801561012d57600080fd5b50610136610859565b604051808681526020018581526020018481526020018381526020018281526020019550505050505060405180910390f35b34801561017457600080fd5b5061017d6108c6565b005b6101876109b9565b005b34801561019557600080fd5b5061019e6109bb565b005b6101dc600480360360408110156101b657600080fd5b81019080803560ff169060200190929190803560ff169060200190929190505050610a50565b005b6000600880549050116101f057600080fd5b60025442116101fe57600080fd5b42600281905550600044905060006001430340905061021b610ca0565b60086001600880549050038154811061023057fe5b906000526020600020016040518060600160405290816000820160009054906101000a900473ffffffffffffffffffffffffffffffffffffffff1673ffffffffffffffffffffffffffffffffffffffff1673ffffffffffffffffffffffffffffffffffffffff1681526020016000820160149054906101000a900460ff1660ff1660ff1681526020016000820160159054906101000a900460ff1660ff1660ff1681525050905060006025428585856020015186600001518760400151604051602001808781526020018681526020018581526020018460ff1660ff1660f81b81526001018373ffffffffffffffffffffffffffffffffffffffff1673ffffffffffffffffffffffffffffffffffffffff1660601b81526014018260ff1660ff1660f81b815260010196505050505050506040516020818303038152906040528051906020012060001c8161038157fe5b06905060008090505b6008805490508110156107835760008090506103a4610ca0565b600883815481106103b157fe5b906000526020600020016040518060600160405290816000820160009054906101000a900473ffffffffffffffffffffffffffffffffffffffff1673ffffffffffffffffffffffffffffffffffffffff1673ffffffffffffffffffffffffffffffffffffffff1681526020016000820160149054906101000a900460ff1660ff1660ff1681526020016000820160159054906101000a900460ff1660ff1660ff168152505090506000841415610486576005816020015160ff1614801561047f57506000816040015160ff16145b91506106e2565b6005816020015160ff1614156104a75783816040015160ff161491506106e1565b6004816020015160ff1614156104fe576000816040015160ff1614156104d8576000600285816104d357fe5b061491505b6001816040015160ff1614156104f9576001600285816104f457fe5b061491505b6106e0565b6003816020015160ff161415610543576000816040015160ff16141561052657601284111591505b6001816040015160ff16141561053e57601384101591505b6106df565b6002816020015160ff1614156105ab576000816040015160ff16141561056b57600c84111591505b6001816040015160ff16141561058f57600c8411801561058c575060188411155b91505b6002816040015160ff1614156105a6576018841191505b6106de565b6001816020015160ff161415610623576000816040015160ff1614156105dc576001600385816105d757fe5b061491505b6001816040015160ff1614156105fd576002600385816105f857fe5b061491505b6002816040015160ff16141561061e5760006003858161061957fe5b061491505b6106dd565b6000816020015160ff1614156106dc576000816040015160ff16141561069157600a841115806106615750601484101580156106605750601c8411155b5b1561067b5760006002858161067257fe5b0614915061068c565b60016002858161068757fe5b061491505b6106db565b600a841115806106af5750601484101580156106ae5750601c8411155b5b156106c9576001600285816106c057fe5b061491506106da565b6000600285816106d557fe5b061491505b5b5b5b5b5b5b5b5b8115610774576006816020015160ff16815481106106fc57fe5b90600052602060002090602091828204019190069054906101000a900460ff1660ff166000540260056000836000015173ffffffffffffffffffffffffffffffffffffffff1673ffffffffffffffffffffffffffffffffffffffff168152602001908152602001600020600082825401925050819055505b5050808060010191505061038a565b5060006008816107939190610cdd565b5060006001819055506004544711156107af576107ae610c21565b5b7fec6cdc8e735e4069f6e89062582f3e5532a8e71373e7ef2962fa916cf2af21f2816040518082815260200191505060405180910390a150505050565b600881815481106107f957fe5b906000526020600020016000915090508060000160009054906101000a900473ffffffffffffffffffffffffffffffffffffffff16908060000160149054906101000a900460ff16908060000160159054906101000a900460ff16905083565b60008060008060006008805490506000546008805490500260025447600560003373ffffffffffffffffffffffffffffffffffffffff1673ffffffffffffffffffffffffffffffffffffffff16815260200190815260200160002054945094509450945094509091929394565b60003390506000600560008373ffffffffffffffffffffffffffffffffffffffff1673ffffffffffffffffffffffffffffffffffffffff1681526020019081526020016000205490506000811161091c57600080fd5b4781111561092957600080fd5b6000600560008473ffffffffffffffffffffffffffffffffffffffff1673ffffffffffffffffffffffffffffffffffffffff168152602001908152602001600020819055508173ffffffffffffffffffffffffffffffffffffffff166108fc829081150290604051600060405180830381858888f193505050501580156109b4573d6000803e3d6000fd5b505050565b565b600360009054906101000a900473ffffffffffffffffffffffffffffffffffffffff1673ffffffffffffffffffffffffffffffffffffffff163373ffffffffffffffffffffffffffffffffffffffff1614610a1557600080fd5b600360009054906101000a900473ffffffffffffffffffffffffffffffffffffffff1673ffffffffffffffffffffffffffffffffffffffff16ff5b6000543414610a5e57600080fd5b60008160ff1610158015610a76575060058160ff1611155b610a7f57600080fd5b60008260ff1610158015610ac8575060078160ff1681548110610a9e57fe5b90600052602060002090602091828204019190069054906101000a900460ff1660ff168260ff1611155b610ad157600080fd5b60003460068360ff1681548110610ae457fe5b90600052602060002090602091828204019190069054906101000a900460ff1660ff16029050600081600154019050478110610b1f57600080fd5b81600160008282540192505081905550600860405180606001604052803373ffffffffffffffffffffffffffffffffffffffff1681526020018560ff1681526020018660ff1681525090806001815401808255809150509060018203906000526020600020016000909192909190915060008201518160000160006101000a81548173ffffffffffffffffffffffffffffffffffffffff021916908373ffffffffffffffffffffffffffffffffffffffff16021790555060208201518160000160146101000a81548160ff021916908360ff16021790555060408201518160000160156101000a81548160ff021916908360ff16021790555050505050505050565b6000600454470390506000811115610c9d57600360009054906101000a900473ffffffffffffffffffffffffffffffffffffffff1673ffffffffffffffffffffffffffffffffffffffff166108fc829081150290604051600060405180830381858888f19350505050158015610c9b573d6000803e3d6000fd5b505b50565b6040518060600160405280600073ffffffffffffffffffffffffffffffffffffffff168152602001600060ff168152602001600060ff1681525090565b815481835581811115610d0457818360005260206000209182019101610d039190610d09565b5b505050565b610d7491905b80821115610d7057600080820160006101000a81549073ffffffffffffffffffffffffffffffffffffffff02191690556000820160146101000a81549060ff02191690556000820160156101000a81549060ff021916905550600101610d0f565b5090565b9056fea265627a7a723158204089829aa2e141643de1583ffbf3d98f0dcf8bbc03ca53492bedd97ad9cf345f64736f6c63430005100032",
  "source": "pragma solidity >=0.5.16;\n\ncontract Roulette {\n  \n  uint betAmount;\n  uint necessaryBalance;\n  uint nextRoundTimestamp;\n  address payable creator;\n  uint256 maxAmountAllowedInTheBank;\n  mapping (address => uint256) winnings;\n  uint8[] payouts;\n  uint8[] numberRange;\n  \n  /*\n    BetTypes are as follow:\n      0: color\n      1: column\n      2: dozen\n      3: eighteen\n      4: modulus\n      5: number\n      \n    Depending on the BetType, number will be:\n      color: 0 for black, 1 for red\n      column: 0 for left, 1 for middle, 2 for right\n      dozen: 0 for first, 1 for second, 2 for third\n      eighteen: 0 for low, 1 for high\n      modulus: 0 for even, 1 for odd\n      number: number\n  */\n  \n  struct Bet {\n    address player;\n    uint8 betType;\n    uint8 number;\n  }\n  Bet[] public bets;\n  \n  constructor() public payable {\n    creator = msg.sender;\n    necessaryBalance = 0;\n    nextRoundTimestamp = now;\n    payouts = [2,3,3,2,2,36];\n    numberRange = [1,2,2,1,1,36];\n    betAmount = 10000000000000000; /* 0.01 ether */\n    maxAmountAllowedInTheBank = 2000000000000000000; /* 2 ether */\n  }\n\n  event RandomNumber(uint256 number);\n  \n  function getStatus() public view returns(uint, uint, uint, uint, uint) {\n    return (\n      bets.length,             // number of active bets\n      bets.length * betAmount, // value of active bets\n      nextRoundTimestamp,      // when can we play again\n      address(this).balance,   // roulette balance\n      winnings[msg.sender]     // winnings of player\n    ); \n  }\n    \n  function addEther() payable public {}\n\n  function bet(uint8 number, uint8 betType) payable public {\n    /* \n       A bet is valid when:\n       1 - the value of the bet is correct (=betAmount)\n       2 - betType is known (between 0 and 5)\n       3 - the option betted is valid (don't bet on 37!)\n       4 - the bank has sufficient funds to pay the bet\n    */\n    require(msg.value == betAmount);                               // 1\n    require(betType >= 0 && betType <= 5);                         // 2\n    require(number >= 0 && number <= numberRange[betType]);        // 3\n    uint payoutForThisBet = payouts[betType] * msg.value;\n    uint provisionalBalance = necessaryBalance + payoutForThisBet;\n    require(provisionalBalance < address(this).balance);           // 4\n    /* we are good to go */\n    necessaryBalance += payoutForThisBet;\n    bets.push(Bet({\n      betType: betType,\n      player: msg.sender,\n      number: number\n    }));\n  }\n\n  function spinWheel() public {\n    /* are there any bets? */\n    require(bets.length > 0);\n    /* are we allowed to spin the wheel? */\n    require(now > nextRoundTimestamp);\n    /* next time we are allowed to spin the wheel again */\n    nextRoundTimestamp = now;\n    /* calculate 'random' number */\n    uint diff = block.difficulty;\n    bytes32 hash = blockhash(block.number-1);\n    Bet memory lb = bets[bets.length-1];\n    uint number = uint(keccak256(abi.encodePacked(now, diff, hash, lb.betType, lb.player, lb.number))) % 37;\n    /* check every bet for this number */\n    for (uint i = 0; i < bets.length; i++) {\n      bool won = false;\n      Bet memory b = bets[i];\n      if (number == 0) {\n        won = (b.betType == 5 && b.number == 0);                   /* bet on 0 */\n      } else {\n        if (b.betType == 5) { \n          won = (b.number == number);                              /* bet on number */\n        } else if (b.betType == 4) {\n          if (b.number == 0) won = (number % 2 == 0);              /* bet on even */\n          if (b.number == 1) won = (number % 2 == 1);              /* bet on odd */\n        } else if (b.betType == 3) {            \n          if (b.number == 0) won = (number <= 18);                 /* bet on low 18s */\n          if (b.number == 1) won = (number >= 19);                 /* bet on high 18s */\n        } else if (b.betType == 2) {                               \n          if (b.number == 0) won = (number <= 12);                 /* bet on 1st dozen */\n          if (b.number == 1) won = (number > 12 && number <= 24);  /* bet on 2nd dozen */\n          if (b.number == 2) won = (number > 24);                  /* bet on 3rd dozen */\n        } else if (b.betType == 1) {               \n          if (b.number == 0) won = (number % 3 == 1);              /* bet on left column */\n          if (b.number == 1) won = (number % 3 == 2);              /* bet on middle column */\n          if (b.number == 2) won = (number % 3 == 0);              /* bet on right column */\n        } else if (b.betType == 0) {\n          if (b.number == 0) {                                     /* bet on black */\n            if (number <= 10 || (number >= 20 && number <= 28)) {\n              won = (number % 2 == 0);\n            } else {\n              won = (number % 2 == 1);\n            }\n          } else {                                                 /* bet on red */\n            if (number <= 10 || (number >= 20 && number <= 28)) {\n              won = (number % 2 == 1);\n            } else {\n              won = (number % 2 == 0);\n            }\n          }\n        }\n      }\n      /* if winning bet, add to player winnings balance */\n      if (won) {\n        winnings[b.player] += betAmount * payouts[b.betType];\n      }\n    }\n    /* delete all bets */\n    bets.length = 0;\n    /* reset necessaryBalance */\n    necessaryBalance = 0;\n    /* check if to much money in the bank */\n    if (address(this).balance > maxAmountAllowedInTheBank) takeProfits();\n    /* returns 'random' number to UI */\n    emit RandomNumber(number);\n  }\n  \n  function cashOut() public {\n    address payable player = msg.sender;\n    uint256 amount = winnings[player];\n    require(amount > 0);\n    require(amount <= address(this).balance);\n    winnings[player] = 0;\n    player.transfer(amount);\n  }\n  \n  function takeProfits() internal {\n    uint amount = address(this).balance - maxAmountAllowedInTheBank;\n    if (amount > 0) creator.transfer(amount);\n  }\n  \n  function creatorKill() public {\n    require(msg.sender == creator);\n    selfdestruct(creator);\n  }\n \n}",
  "sourcePath": "C:/Users/DELL/Desktop/AutoNeo/ethereum-roulette/contracts/Roulette.sol",
  "compiler": {
    "name": "solc",
    "version": "0.5.16+commit.9c3226ce.Emscripten.clang"
  },
  "schemaVersion": "3.3.4",
  "updatedAt": "2021-02-15T14:43:02.004Z",
  "networkType": "ethereum",
  "devdoc": {
    "methods": {}
  },
  "userdoc": {
    "methods": {}
  }
}